:020000040800F2
:1000000000000520491A0008651900086719000852
:10001000691900086B1900086D190008000000003C
:1000200000000000000000000000000051790008FE
:100030006F19000800000000F1790008557A0008E7
:10004000991A0008991A0008991A0008991A0008C4
:10005000991A0008991A0008991A0008991A0008B4
:10006000991A0008991A0008991A0008991A0008A4
:10007000991A0008991A0008991A0008991A000894
:10008000991A0008991A0008991A0008991A000884
:10009000991A0008991A0008991A0008991A000874
:1000A000991A0008991A0008991A0008991A000864
:1000B000991A0008991A0008991A0008991A000854
:1000C000991A0008991A0008991A0008991A000844
:1000D000991A0008991A0008991A0008991A000834
:1000E000991A0008991A0008991A0008991A000824
:1000F000991A0008991A0008991A0008991A000814
:10010000991A0008991A0008991A0008991A000803
:10011000991A0008991A000871190008991A00081C
:10012000991A0008991A0008991A0008991A0008E3
:10013000991A0008991A0008991A0008991A0008D3
:10014000991A0008991A0008991A0008991A0008C3
:10015000991A0008991A0008991A0008991A0008B3
:10016000991A0008991A0008991A0008991A0008A3
:10017000991A0008991A0008991A0008000000004E
:10018000991A0008991A0008991A0008991A000883
:10019000991A0008991A0008991A0008991A000873
:1001A0007D190008991A000889190008991A000891
:1001B000991A0008991A0008991A0008991A000853
:0801C000991A0008991A0008C1
:1001D00010B5054C237833B9044B13B10448AFF381
:1001E00000800123237010BD4003002000000000A8
:1001F0006018030808B5034B1BB103490348AFF36C
:10020000008008BD000000004403002060180308BF
:1002100001F0FF01102A2BDB10F0070F08D010F8B7
:10022000013B013A8B422DD010F0070F42B3F6D1BB
:10023000F0B441EA012141EA014122F007047FF0D4
:1002400000070023F0E80256083C85EA010586EA2B
:10025000010685FA47F5A3FA87F586FA47F6A5FA67
:1002600087F68EB9EED1F0BC01F0FF0102F0070273
:1002700032B110F8013B013A83EA010313B1F8D11E
:100280000020704701387047002D06BF35460338FF
:10029000073815F0010F07D1013015F4807F02BF38
:1002A000013015F4C03F0130F0BC0138704700BF89
:1002B00081F0004102E000BF83F0004330B54FEA17
:1002C00041044FEA430594EA050F08BF90EA020F84
:1002D0001FBF54EA000C55EA020C7FEA645C7FEA17
:1002E000655C00F0E2804FEA5454D4EB5555B8BF3A
:1002F0006D420CDD2C4480EA020281EA030382EAAB
:10030000000083EA010180EA020281EA0303362D3C
:1003100088BF30BD11F0004F4FEA01314FF4801C0F
:100320004CEA113102D0404261EB410113F0004F21
:100330004FEA03334CEA133302D0524263EB4303D8
:1003400094EA050F00F0A780A4F10104D5F1200E76
:100350000DDB02FA0EFC22FA05F2801841F10001D1
:1003600003FA0EF2801843FA05F359410EE0A5F1A5
:1003700020050EF1200E012A03FA0EFC28BF4CF0D6
:10038000020C43FA05F3C01851EBE37101F000458C
:1003900007D54FF0000EDCF1000C7EEB00006EEB99
:1003A0000101B1F5801F1BD3B1F5001F0CD3490823
:1003B0005FEA30004FEA3C0C04F101044FEA44527A
:1003C00012F5800F80F09A80BCF1004F08BF5FEA01
:1003D000500C50F1000041EB045141EA050130BDE1
:1003E0005FEA4C0C404141EB0101013C28BFB1F5F3
:1003F000801FE9D291F0000F04BF01460020B1FA3E
:1004000081F308BF2033A3F10B03B3F120020CDA10
:100410000C3208DD02F1140CC2F10C0201FA0CF0EE
:1004200021FA02F10CE002F11402D8BFC2F1200C53
:1004300001FA02F120FA0CFCDCBF41EA0C01904009
:10044000E41AA2BF01EB0451294330BD6FEA040452
:100450001F3C1CDA0C340EDC04F11404C4F120023D
:1004600020FA04F001FA02F340EA030021FA04F34F
:1004700045EA030130BDC4F10C04C4F1200220FAA6
:1004800002F001FA04F340EA0300294630BD21FAE4
:1004900004F0294630BD94F0000F83F4801306BFAA
:1004A00081F480110134013D4EE77FEA645C18BF9E
:1004B0007FEA655C29D094EA050F08BF90EA020F35
:1004C00005D054EA000C04BF1946104630BD91EA2D
:1004D000030F1EBF0021002030BD5FEA545C05D130
:1004E0004000494128BF41F0004130BD14F580046F
:1004F0003CBF01F5801130BD01F0004545F0FE41E3
:1005000041F470014FF0000030BD7FEA645C1ABF17
:10051000194610467FEA655C1CBF0B46024650EA4E
:10052000013406BF52EA033591EA030F41F400217A
:1005300030BD00BF90F0000F04BF0021704730B500
:100540004FF4806404F132044FF000054FF00001D5
:1005500050E700BF90F0000F04BF0021704730B596
:100560004FF4806404F1320410F0004548BF40426B
:100570004FF000013EE700BF42004FEAE2014FEAC0
:1005800031014FEA02701FBF12F07F4393F07F4F9B
:1005900081F06051704732F07F4208BF704793F09E
:1005A0007F4F04BF41F40021704730B54FF46074B1
:1005B00001F0004521F000411CE700BF50EA0102B4
:1005C00008BF704730B54FF000050AE050EA01025D
:1005D00008BF704730B511F0004502D5404261EBCD
:1005E00041014FF4806404F132045FEA915C3FF40E
:1005F000D8AE4FF003025FEADC0C18BF03325FEAAB
:10060000DC0C18BF033202EBDC02C2F1200300FA5B
:1006100003FC20FA02F001FA03FE40EA0E0021FA80
:1006200002F11444BDE600BF70B54FF0FF0C4CF46E
:10063000E06C1CEA11541DBF1CEA135594EA0C0F20
:1006400095EA0C0F00F0DEF82C4481EA030621EA5B
:100650004C5123EA4C5350EA013518BF52EA033596
:1006600041F4801143F4801338D0A0FB02CE4FF048
:100670000005E1FB02E506F00042E0FB03E54FF078
:100680000006E1FB03569CF0000F18BF4EF0010E70
:10069000A4F1FF04B6F5007F64F5407404D25FEA6C
:1006A0004E0E6D4146EB060642EAC62141EA55511F
:1006B0004FEAC52040EA5E504FEACE2EB4F1FD0C61
:1006C00088BFBCF5E06F1ED8BEF1004F08BF5FEADF
:1006D000500E50F1000041EB045170BD06F0004691
:1006E00046EA010140EA020081EA0301B4EB5C043E
:1006F000C2BFD4EB0C0541EA045170BD41F4801136
:100700004FF0000E013C00F3AB8014F1360FDEBF5A
:10071000002001F0004170BDC4F10004203C35DA36
:100720000C341BDC04F11404C4F1200500FA05F3B9
:1007300020FA04F001FA05F240EA020001F000425A
:1007400021F0004110EBD37021FA04F642EB0601D0
:100750005EEA430E08BF20EAD37070BDC4F10C04FA
:10076000C4F1200500FA04F320FA05F001FA04F2BE
:1007700040EA020001F0004110EBD37041F10001AA
:100780005EEA430E08BF20EAD37070BDC4F12005B5
:1007900000FA05F24EEA020E20FA04F301FA05F21D
:1007A00043EA020321FA04F001F0004121FA04F2C5
:1007B00020EA020000EBD3705EEA430E08BF20EA95
:1007C000D37070BD94F0000F0FD101F000464000CF
:1007D00041EB010111F4801F08BF013CF7D041EA51
:1007E000060195F0000F18BF704703F00046520055
:1007F00043EB030313F4801F08BF013DF7D043EA26
:100800000603704794EA0C0F0CEA135518BF95EADB
:100810000C0F0CD050EA410618BF52EA4306D1D162
:1008200081EA030101F000414FF0000070BD50EA81
:10083000410606BF1046194652EA430619D094EA0B
:100840000C0F02D150EA013613D195EA0C0F05D1F5
:1008500052EA03361CBF104619460AD181EA030149
:1008600001F0004141F0FE4141F470014FF0000001
:1008700070BD41F0FE4141F4780170BD70B54FF09C
:10088000FF0C4CF4E06C1CEA11541DBF1CEA13551C
:1008900094EA0C0F95EA0C0F00F0A7F8A4EB0504FE
:1008A00081EA030E52EA03354FEA013100F08880F5
:1008B0004FEA03334FF0805545EA131343EA1263BE
:1008C0004FEA022245EA111545EA10654FEA002673
:1008D0000EF000419D4208BF964244F1FD0404F52C
:1008E000407402D25B084FEA3202B61A65EB030588
:1008F0005B084FEA32024FF480104FF4002CB6EB45
:10090000020E75EB030E22BFB61A754640EA0C00C4
:100910005B084FEA3202B6EB020E75EB030E22BF04
:10092000B61A754640EA5C005B084FEA3202B6EB45
:10093000020E75EB030E22BFB61A754640EA9C0004
:100940005B084FEA3202B6EB020E75EB030E22BFD4
:10095000B61A754640EADC0055EA060E18D04FEA92
:10096000051545EA16754FEA06164FEAC30343EA32
:1009700052734FEAC2025FEA1C1CC0D111F4801FFF
:100980000BD141EA00014FF000004FF0004CB6E7F8
:1009900011F4801F04BF01430020B4F1FD0C88BF97
:1009A000BCF5E06F3FF6AFAEB5EB030C04BFB6EBA2
:1009B000020C5FEA500C50F1000041EB045170BD95
:1009C0000EF0004E4EEA113114EB5C04C2BFD4EBC2
:1009D0000C0541EA045170BD41F480114FF0000E46
:1009E000013C90E645EA060E8DE60CEA135594EAC2
:1009F0000C0F08BF95EA0C0F3FF43BAF94EA0C0FC5
:100A00000AD150EA01347FF434AF95EA0C0F7FF439
:100A100025AF104619462CE795EA0C0F06D152EA8D
:100A200003353FF4FDAE1046194622E750EA410671
:100A300018BF52EA43067FF4C5AE50EA41047FF482
:100A40000DAF52EA43057FF4EBAE12E74FEA4102E5
:100A5000B2F1E04324BFB3F5001CDCF1FE5C0DD91C
:100A600001F0004C4FEAC0024CEA5070B2F1004F66
:100A700040EB830008BF20F00100704711F0804F69
:100A800021D113F13872BCBF01F00040704741F42E
:100A900080114FEA5252C2F11802C2F1200C10FA32
:100AA0000CF320FA02F018BF40F001004FEAC12316
:100AB0004FEAD32303FA0CFC40EA0C0023FA02F3BA
:100AC0004FEA4303CCE77FEA625307D150EA013390
:100AD0001EBF4FF0FE4040F44000704701F0004060
:100AE00040F0FE4040F40000704700BF7BB972B98F
:100AF0000029BEBF00204FF0004106E008BF0028DB
:100B00001CBF6FF000414FF0FF3000F0B5B9ADF100
:100B1000080C6DE904CE002909DB002B1ADB00F07C
:100B20004DF8DDF804E0DDE9022304B070474042EF
:100B300061EB4101002B1BDB00F040F8DDF804E025
:100B4000DDE9022304B0404261EB4101524263EB14
:100B500043037047524263EB430300F02FF8DDF884
:100B600004E0DDE9022304B0404261EB410170473B
:100B7000524263EB430300F021F8DDF804E0DDE9C5
:100B8000022304B0524263EB4303704753B94AB99E
:100B9000002908BF00281CBF4FF0FF314FF0FF3085
:100BA00000F06AB9ADF1080C6DE904CE00F006F86A
:100BB000DDF804E0DDE9022304B070472DE9F047D9
:100BC000089D0C46002B4ED194468C458646B2FAC1
:100BD00082F262D94AB1C2F12003914020FA03F3B4
:100BE0000CFA02FC194300FA02FE4FEA1C471FFAF6
:100BF0008CF6B1FBF7F44FEA1E4307FB141143EAEE
:100C0000014304FB06F199420AD91CEB030304F1EA
:100C1000FF3080F01281994240F20F81023C634420
:100C2000591A1FFA8EF3B1FBF7F007FB101143EAD4
:100C3000014300FB06F69E420AD91CEB030300F1B8
:100C4000FF3180F0FC809E4240F2F980634402381C
:100C50009B1B40EA044000211DB1D3400022C5E99E
:100C60000032BDE8F0878B4205D90DB1C5E900011E
:100C700000210846F5E7B3FA83F1002946D1A342E3
:100C800002D39042C0F0F080861A64EB0303012087
:100C9000002DE6D0C5E90063E3E7002A40F090802C
:100CA000A1EB0C044FEA1C481FFA8CF70121B4FB9E
:100CB000F8F64FEA1E4308FB164443EA044307FBD9
:100CC00006F0984208D91CEB030306F1FF3402D268
:100CD000984200F2CD8026461C1A1FFA8EF3B4FB10
:100CE000F8F008FB104443EA044300FB07F79F4277
:100CF00008D91CEB030300F1FF3402D29F4200F23B
:100D0000B0802046DB1B40EA0640A5E7C1F1200683
:100D10008B4022FA06F71F4320FA06FC04FA01F37F
:100D200043EA0C03F44000FA01F8380C4FEA134987
:100D3000B4FBF0FE1FFA87FC00FB1E4449EA0444A2
:100D40000EFB0CF9A14502FA01F20AD93C190EF189
:100D5000FF3A80F08480A14540F28180AEF1020E1E
:100D60003C44A4EB09041FFA83F9B4FBF0F300FB45
:100D7000134449EA044403FB0CFCA44507D93C197D
:100D800003F1FF3067D2A44565D9023B3C4443EAF6
:100D90000E40A0FB0293A4EB0C049C42CE469C4662
:100DA00051D34ED055B1B8EB0E0364EB0C0404FAEA
:100DB00006F6CB401E43CC40C5E90064002150E755
:100DC000C2F1200320FA03F10CFA02FC24FA03F327
:100DD00094400C434FEA1C4800FA02FE1FFA8CF7BD
:100DE000B3FBF8F008FB1031230C43EA014300FB8E
:100DF00007F1994208D91CEB030300F1FF362CD20E
:100E000099422AD9023863445B1AA4B2B3FBF8F1C1
:100E100008FB113344EA034401FB07F3A34208D95A
:100E20001CEB040401F1FF3613D2A34211D902399D
:100E30006444E41A41EA004139E70446F0E6084612
:100E400006E7C845AED2B9EB020E63EB070C0138DA
:100E5000A8E73146EDE7034699E73046D4E7D646A2
:100E60007FE7634402384DE70646234608460FE70E
:100E7000023E634430E700BF704700BF01490020D5
:100E800007F064BF451F000808B5642006F06EF93E
:100E9000FBE7000010B594B01022002102240AA83C
:100EA0002FF0A0FD1422002103A82FF09BFD1D4B65
:100EB000192108A81A6C42F080521A641B6C03F0C6
:100EC00080530193019B184B1A6842F440421A6008
:100ED00001221B6803F440430293029B4FF48033CA
:100EE000CDE908234FF48003CDE90E434FF4D873C6
:100EF000CDE91244CDE9101305F008F904F0A4FD82
:100F00000F2300200721CDE903344FF4A053CDE98E
:100F100005034FF4805303A8079305F0DFFA14B0DC
:100F200010BD00BF00380240007000402DE980482D
:100F30009BB01022002101250DA84FF010492FF081
:100F400051FD002403F0C6FCC74B0DA8ADF834508A
:100F50001094CDE90E9303F0DBFC17230DA88DF858
:100F600035508DF83C308DF8425003F0D1FC042010
:100F700003F0BEFCBFF34F8FBFF36F8FBB4AC2F8C5
:100F80005042BFF34F8FBFF36F8F536943F4003369
:100F90005361BFF34F8FBFF36F8FC2F88440BFF32D
:100FA0004F8FD2F8803043F6E074C3F3C900C3F327
:100FB0004E335B0103EA0406014646EA81750139B6
:100FC000C2F86052F9D2203B13F1200FF2D1BFF3E7
:100FD0004F8F536943F480335361BFF34F8FBFF397
:100FE0006F8F03F0DDFB0024FFF754FF1422002174
:100FF0000DA82FF0F7FC9E4B10219E481A6B01277D
:101000004FF010084FF0030B42F010024FF4805ADB
:10101000994D4FF004091A631A6B984E02F01002B2
:101020000292029A1A6B42F002021A631A6B02F0E1
:1010300002020392039A1A6B42F001021A631A6BBE
:1010400002F001020492049A1A6B42F040021A6301
:101050001A6B02F040020592059A1A6B42F4007274
:101060001A631A6B02F400720692069A1A6B42F027
:1010700008021A631A6B02F008020792079A1A6BA9
:1010800042F480621A631A6B02F480620892089A32
:101090001A6B42F020021A631A6B02F020020992C6
:1010A000099A1A6B42F480721A631A6B02F4807206
:1010B0000A920A9A1A6B42F080021A631A6B02F0C3
:1010C00080020B920B9A1A6B42F004021A63002200
:1010D0001B6B03F004030C930C9B03F067FF0122CE
:1010E0000821674803F062FF01224FF480516548F0
:1010F00003F05CFF0022C021634803F057FF002289
:101100004021624803F052FF0DA95A48CDE90D87EE
:10111000CDE90F4B03F0C6FD08230DA95848CDE9D2
:101120000D37CDE90F4403F0BDFD0DA95548CDE9BC
:101130000DA7CDE90F4403F0B5FDC0220DA952481B
:10114000CDE90D27CDE90F4B03F0ACFD40220DA9F1
:101150004E48CDE90D27CDE90F4B03F0A3FD4C48D8
:101160004C49848001600762C0E9054403F0FCFB40
:1011700049492846C5E90014C5E90244C5E90A44BD
:10118000C5E90C4403F08FFC39462846434D03F073
:1011900043FD40234FF4C07241493046B460F461CE
:1011A000B462C6E905324FF40062C6E9082A4FF07E
:1011B000020A0722C6E900140DA9CDF84CA0C6E921
:1011C0000398CDE90DA2CDE90F92CDE911BA05F052
:1011D000DBFC29464FF6FF7230460194C5E90078E2
:1011E000C5E9027405F0F0FC384603F0FDFA294623
:1011F0004FF6FF723046C5E900A8C5E9027405F054
:10120000E3FC082329464FF6FF723046C5E900B8D3
:10121000C5E9023405F0D8FC4FF40C734FF6FF72A9
:10122000294601933046019BAF60EB60C5E9009809
:1012300005F0CAFC40F22B7130461A4D05F0E3FC74
:101240004FF0204343F2D202642040F215261A6088
:1012500003F0CAFA144B154A28462C62C5E900234C
:10126000C5E9024724E000BF1B00000300ED00E0D9
:101270000038024000040240F404002078030020FB
:1012800000280240002002400008024000180240EE
:10129000340500200030024000B002405C03002012
:1012A000400100A0A004002068474020005C0040EE
:1012B000C5E90444C5E9064403F0B9FF21462846C0
:1012C00004F0DCF9214628463E4D04F0FDF93422B5
:1012D00021460DEB02002FF085FB3B4B28213520EA
:1012E00040F2352C2C61AC8685F83640C5E90034D7
:1012F0000923C5E905130B23C5E9070340F21B13B6
:101300002846C5E9096340F21D13C5E90244C5E951
:101310000BC304F085FAFF214FF4806E4FF4F07296
:101320004FF4887328460D941893ADF864408DF8F7
:101330006640CDE912140521CDE914E14FF040419A
:10134000CDE90E24CDE9161222460DA9CDE9103AB9
:1013500004F031FB1D481E4B0462C0E90037C0E9B0
:1013600002984FF4A0634FF01808C0E90644C0E9A2
:10137000048304F083FC03F093F802F0D9FF5C20AF
:1013800003F096FA00F05EFB00F088FB00F085FBAE
:1013900005F05EFE0F4A21460F4805F093FE0F4B05
:1013A0000F4A214618600F4805F08CFE0E4B0F4A7D
:1013B000214618600E4805F085FE0E4B186005F0BA
:1013C00061FEFEE7F803002000680140AC03002046
:1013D000001000A024190308890E000874030020DF
:1013E00000190308AB1A000870030020DC1803087A
:1013F0000D3600086C0300200268034B9A4201D1AD
:1014000003F0E0B9704700BF0010004070470000D3
:101410000D4B82B00F216FF001001A6C42F0805228
:101420001A641A6C02F080520092009A5A6C42F4CC
:1014300080425A6400225B6C03F480430193019B59
:1014400002B003F0F5B900BF00380240026882B074
:10145000084B9A420BD1D3F8302803F5006342F4CD
:1014600080521A631B6B03F480530193019B02B0FB
:10147000704700BF003002400E4B07B502689A4229
:1014800015D1A3F5F04305215A201A6B42F400024E
:101490001A6300221B6B03F400030193019B03F00A
:1014A000C7F95A2003B05DF804EB03F0F3B903B0B9
:1014B0005DF804FB00B0024010B5A8B00446142249
:1014C000002102A82FF08EFA8422002107A82FF015
:1014D00089FA2268174B9A422AD14FF4803307A821
:1014E000079305F0C7F808B1FFF790FF124C4FF4CF
:1014F000C07201211148236B43F080032363236BE7
:1015000003F080030093009B1223CDE90223032301
:10151000CDE90413042302A9069303F0C3FB236C53
:1015200043F400032364236C03F400030193019B41
:1015300028B010BD005C004000380240001C024092
:10154000026808B5094B9A420FD1094A802109481F
:10155000136C23F40003136403F088FC4FF48071D0
:101560000448BDE8084003F081BC08BD005C0040B1
:1015700000380240001C024070B5ACB00446142292
:10158000002106A82FF02EFA842200210BA82FF0AC
:1015900029FA2268484B9A4240F08C8008230520A3
:1015A00001240B934FF4C07310930223CDE9113043
:1015B0004FF400330BA8CDE9154305F05BF808B1F3
:1015C000FFF724FF3D4B002402250E265A6C06A986
:1015D0003B4842F080625A645A6C02F0806200928A
:1015E000009A1A6B42F010021A631A6B02F0100292
:1015F0000192019A1A6B42F400721A631A6B02F498
:1016000000720292029A1A6B42F480621A631A6B99
:1016100002F480620392039A1A6B42F040021A634A
:101620001A6B02F040020492049A1A6B42F4807220
:101630001A631B6B03F480730593059B1023CDE99C
:101640000635CDE908440A9603F02CFB4EF6FF73ED
:1016500006A91C480A96CDE90635CDE9084403F0F1
:1016600021FBF72306A918480A96CDE90635CDE9EE
:10167000084403F017FB4FF4805306A91348CDE943
:1016800006350923CDE908440A9303F00BFB4FF418
:10169000464306A90E480A96CDE90635CDE9084429
:1016A00003F000FB58202246052103F0C1F8582022
:1016B00003F0F0F82CB070BD006801400038024023
:1016C000001002400024024000280240001802409E
:1016D00000200240142200212DE9F0418AB0044686
:1016E0000DEB02002FF07EF922682C4B9A4251D16B
:1016F0002B4B0225032409269A6B4FF0040805A9F9
:10170000284842F0020200279A639A6B02F0020214
:101710000192019A1A6B42F010021A631A6B02F0DE
:1017200010020292029A1A6B42F002021A631A6BBA
:1017300002F002020392039A1A6B42F008021A6343
:101740001B6B03F008030493049BCDE90585CDE9E9
:10175000084603F0A7FA402305A91348CDE905354B
:101760000A23CDE90774099303F09CFA05A90E48F2
:101770000996CDE90585CDE9077403F093FA4FF496
:10178000605305A909480996CDE90535CDE90774E7
:1017900003F088FA0AB0BDE8F08100BF001000A095
:1017A000003802400010024000040240000C0240D9
:1017B000026808B50B4B9A4213D10B4A04210B481F
:1017C000936B23F00203936303F050FB442108481A
:1017D00003F04CFB4FF460510648BDE8084003F0AD
:1017E00045BB08BD001000A00038024000100240B8
:1017F00000040240000C0240F0B5002387B00393C0
:10180000294B1E68002E4DD10122022703250C24EE
:101810001A6001A9254B26489A6B42F001029A638F
:101820009B6B03F001030093009B4FF68373CDE99C
:101830000454CDE9013703F035FA48F2331301A916
:101840001C480594CDE90137CDE9036503F02AFA78
:101850004CF2037301A918480594CDE90137CDE98D
:10186000036503F01FFA4FF63F0301A913480594DF
:10187000CDE90137CDE9036503F014FA282301A966
:101880000F480594CDE90137CDE9036503F00AFA65
:10189000082301A90B480594CDE90137CDE903657B
:1018A00003F000FA07B0F0BD5805002000380240F0
:1018B0000010024000180240000C024000140240D8
:1018C000001C024000080240214B1A6C42F010023A
:1018D00070B51A6488B01B6C054601A903A803F013
:1018E00010030293029B04F0A7FE069B4BBB04F07F
:1018F00093FE184E184B336040F2E733F360174BFA
:10190000B0FBF3F3013B3046736000233361B360F7
:10191000B36105F0DFFA044680B9304605F08CF972
:10192000044658B9362002F0B5FF0F2D0DD82246D7
:101930002946362002F07CFF094B1D60204608B086
:1019400070BD04F069FE4000D3E70124F6E700BF54
:10195000003802405C0500200010004040420F00AB
:101960003C0000207047FEE7FEE7FEE7FEE7704719
:10197000014805F0A3B900BF5C050020014803F051
:10198000BDBF00BFF8030020014803F0BAB800BF94
:10199000F40400200120704708B52FF0D7F8162373
:1019A00003604FF0FF3008BD08B52FF0CFF81623C5
:1019B0000360FEE770B50D4614460E46731B9C424D
:1019C00001DC204670BDAFF3008006F8010BF5E79F
:1019D00070B50D4614460E46731B9C4201DC204632
:1019E00070BD16F8010BAFF30080F5E74FF0FF3044
:1019F00070474FF4005300204B6070470120704740
:101A0000002070470B4A0346116810B509B90A490E
:101A10001160106809490A4C0344091B8B4206D91E
:101A20002FF094F80C2303604FF0FF3010BD1360CB
:101A3000FCE700BFA8050020188001200000052059
:101A4000000A000070470000DFF834D0002103E0F6
:101A50000C4B5B58435004310B480C4B42189A42D4
:101A6000F6D30B4A02E0002342F8043B094B9A42AA
:101A7000F9D302F0ADFD2FF06FF8FFF757FA70477A
:101A800000000520346B0308000000202401002022
:101A90004003002014800120FEE7704708B501F0E4
:101AA0008FF9BDE8084001F011B901F08BB9406829
:101AB00070474160704700004FF0E022D2F8FC3DD3
:101AC00043F08073C2F8FC3D054B064AD3F8B01FC3
:101AD0000A43C3F8B02F1A6842F001021A60704737
:101AE000001000E055CEACC5521A02EB5302B2FB17
:101AF000F3F07047014B5868704700BF001000E0DA
:101B0000704710B504460C212DF069FD204610BD2C
:101B1000036810B51B69044631B19847A268636831
:101B20009B1A0344636010BD9847A060FBE7000068
:101B3000024B7020024A1360DB6818471000002037
:101B4000AC050020704710B5044604212DF047FD78
:101B5000204610BD73B50E4E0D461446336813B9BA
:101B6000002002B070BD1B69702098470028F7D094
:101B70003368702001AA0DF106015B699847BDF832
:101B8000043001202B60BDF806302360E9E700BF78
:101B9000AC0500207FB501238DF817204FF47A7231
:101BA000CDE901320DF1170200920A4601460548BF
:101BB00003F0ACFB10B1034803F08EFB07B05DF8F7
:101BC00004FB00BFA00400207FB500230A464FF4A9
:101BD0007A718DF817300123CDE901310DF117012C
:101BE00000910146054803F06BFC10B1034803F077
:101BF00073FB9DF8170007B05DF804FBA0040020FC
:101C0000032823D8DFE800F0020B131A104B102131
:101C100010481A68B2FA82F2520903F0C7B90C4BA5
:101C200040215A68B2FA82F252090B48F5E7084B94
:101C300080219A68B2FA82F25209F6E7044B4021F9
:101C40000648DA68B2FA82F25209E6E7704700BF46
:101C5000B0050020000402400008024000180240C5
:101C6000032823D8DFE800F0020B131A104B1021D1
:101C700010481A68003A18BF012203F097B90C4BBC
:101C800040215A68003A18BF01220B48F5E7084B7B
:101C900080219A68003A18BF0122F6E7044B4021E0
:101CA0000648DA68003A18BF0122E6E7704700BF2D
:101CB000B005002000040240000802400018024065
:101CC00003280FD8DFE800F00206090B10210648B0
:101CD00003F071B940210548FAE78021FBE7402174
:101CE0000348F5E7704700BF0004024000080240C7
:101CF0000018024008B5032813D8DFE800F0020AF4
:101D00000D0F1021084803F04BF9431E584258416B
:101D100008BD40210548F6E78021FBE74021044843
:101D2000F1E70020F1E700BF000402400008024094
:101D30000018024070B5084D00240126E0B2FFF7FC
:101D4000D9FF18B12B68012B18BF2E600134043560
:101D5000052CF3D170BD00BFB0050020012380F831
:101D6000781080F87930704700207047416400395E
:101D7000024B18BF01211970704700BFD3720120B8
:101D800000207047836B0BB10846184770474FF629
:101D9000FF707047406803689B69184770470000F0
:101DA00038B5044601F05CF9084923682046084D1F
:101DB000D3F88C3098470023284684F84A30FFF740
:101DC0007BFE0123256184F8703038BD000000C01F
:101DD000C005002001F0E6B801F0EAB870B501F0E6
:101DE00069F910490023C1F88430BFF34F8FD1F84F
:101DF000803043F6E074C3F3C900C3F34E335B0194
:101E000003EA0406024646EA8275013AC1F87452B2
:101E1000F9D2203B13F1200FF2D1BFF34F8FBFF364
:101E20006F8F70BD00ED00E001F046B901F096B88B
:101E300001F068BA01F070BA01F09AB810B5044622
:101E400015F094FE23682046D3F8AC30BDE810406E
:101E5000184715F0E9B810B504467C212DF0BFFBFA
:101E6000204610BD90F834100D4B10B590F8784016
:101E70001A788C4209D03AB90A490B4A0888148862
:101E8000108001220C801A7010BD002AFCD0064A76
:101E90000449148808880C8010800022F3E700BFF2
:101EA000CC720120CA720120C872012070B50D46A3
:101EB000194635B9094B40F2D221094A09482EF09A
:101EC000D5FAC0E90F52003A074B18BF01221A7029
:101ED0000368BDE87040D3F88C30184788190308B0
:101EE000C01903080E1A0308D272012008B5094B65
:101EF0001B888B4203D8084B1B88934205D9074B9C
:101F00009E21074A07482EF0B1FA074B1980074B6C
:101F10001A8008BDC8720120CA720120531A030832
:101F2000B61A03080E1A0308CE720120D0720120DF
:101F3000034690F87A0018B1586803681B68184780
:101F400070470000014608B5034B186801B1012134
:101F500015F026FE012008BDD4720120034B00229B
:101F60005A609A60024A1A60704700BFC00500209C
:101F7000501903080121002208B5084605F0ACF904
:101F80000A4B186028B90A4B28210A4A0A482EF041
:101F90006DFA00220421012005F068FA074B186051
:101FA00018B9074B2C21034AF0E708BDD0050020E3
:101FB000D41B03081D1C03084C1C0308CC0500207F
:101FC000901C0308024B4FF0FF31186805F0DCB994
:101FD000D0050020014B186805F012BAD00500208A
:101FE000024B0021186805F0CFB900BFD0050020D2
:101FF000FFF7F0BF0023034803491A46006805F0C5
:102000007BBA00BFCC0500200400002013B50023DC
:10201000074C01A91A46206805F0B0FA4FF0FF33CB
:10202000002201A9206805F0A9FA02B010BD00BF86
:10203000CC05002003685B6C1847012070470368DB
:102040009B6A1847FEE700000E4B82B01A6B42F401
:1020500000021A631A6B02F400020192019A1A69D3
:1020600042F400021A611A6922F400021A61064B56
:10207000064A1A61064A5A614FF08062054B9A601F
:1020800002B0704700380240F40400202123000809
:102090004520000800E100E040F2EF30704700000A
:1020A000054B4FF080620360044BC3F88820BFF3F8
:1020B0004F8FBFF36F8F7047241E030800E100E0CD
:1020C00010B504464FF45A61FFF7EAFF20462DF0A1
:1020D00086FA204610BD000008B50A2809D8DFE8B6
:1020E00000F006100E08080808101010100002205A
:1020F00008BD054B9021054A05482EF0B7F9002090
:10210000F6E70120F4E700BFD21C0308ED1C03082A
:10211000381D030838B50C46887FFFF7DDFF174BE5
:10212000A58AE28A586342EA054221695A64628BB1
:10213000D963521B1A642568082D0ED19A611A6161
:1021400058620F4A207F42EA0062DA61E2681A624E
:102150000C4A5961D9601A6038BD0022D8611A61F1
:10216000E1680A0A4809C1F3C40102F4784200F4A4
:10217000FC6002430A439A63034AECE700B0024062
:1021800009000100012302000123030008B50B2808
:102190000BD8DFE800F00612100A0A0A0A0808083D
:1021A0000808022008BD0520FCE7054B6F21054A01
:1021B00005482EF05BF90020F4E70120F2E700BFAC
:1021C000D21C03087A1D0308381D03082DE9F041CD
:1021D00091F81D800C464046FFF7D8FFA77F0546C3
:1021E0003846FFF7D3FF06463846FFF775FFA18A4A
:1021F000628B434B521A1A649A61228B521A1A61EB
:10220000E28A586342EA014221695A646268D963EA
:10221000DA602068802828D0227F0FD8202866D056
:10222000402864D004281AD045EA0265344BB845EA
:1022300045F40035DD6160D0324A44E0B0F5807F7E
:1022400004D0B0F5007FEFD12F4800E02F4840EADE
:102250000262DA61E2681A625E62596132E045EA5E
:10226000026242F40032DA61F6E7A068021DDA6227
:10227000227F45EA026545F40035DD615E62596101
:10228000017841B1012921D0214B4FF48D71214AB0
:1022900021482EF0EBF8DA69418822F47F420139B7
:1022A00022F0100242EA01220121DA61144BDA69BC
:1022B00042F02002DA61DA699206FCD410229A60B8
:1022C0000029B9D0154A1A60BDE8F081B2F1FF01CA
:1022D000DA69408822F47F4218BF0121013822F0D8
:1022E000100242EA002242F01002DA61DEE745EA1B
:1022F0000262034B42F40032B5E742F20132E2E7F8
:1023000000B0024001230100090002000A0002009F
:10231000C41D0308DE1D0308381D03080123020045
:10232000024B1B68586803685B691847D472012028
:1023300070B504460A4B0C300026254660226060CA
:102340002672667245F8203B294615F07FFD04F59C
:102350005A63EE6024359D42FBD1204670BD00BF1C
:10236000241E0308034B1A68D207FCD423229A6068
:10237000704700BF00B00240094B5A69D2030AD52A
:10238000BFF34F8F08440029A0EB010204DCBFF328
:102390004F8FBFF36F8F70472039C3F86822F2E781
:1023A00000ED00E030B5104C2568ED07FCD4232586
:1023B0000904FF2BA56041F001014FF002056563A0
:1023C0006164E0630AD00949656241EA0363E3613D
:1023D000074B22626061E060236030BDE561039BD2
:1023E000A363044BF8E700BF00B0024009000100FE
:1023F000010002000100030030B50F4C2568ED0715
:10240000FCD423251204FF2BA56042F001024FF0FB
:10241000020565636264E063E16008D01B0643F077
:102420000213E361054B65626061236030BD044BBC
:10243000E3610123F9E700BF00B0024001000200A0
:10244000020002FF30B50B4C2568ED07FCD42325B4
:1024500012041B06A56042F00102022543F400337A
:1024600065636264E063E160E361034B6562606140
:10247000236030BD00B00240010002004069704797
:1024800090F844007047036B23B9C06A003818BF46
:10249000012070470120704780687047043010B5F4
:1024A0000C460FC884E80F0010BD704708B5034AFA
:1024B00040F21221024B03482DF0D8FF6C1E030896
:1024C0006B370308C71E030810B5044648212DF0DA
:1024D00086F8204610BD00002DE9F0431C46436BF2
:1024E000ADF51F7D05460E461746002B37D000225E
:1024F00003A8DFF8A890CDE901320DF013F94FF4ED
:10250000F4725021249024A807F0C1F83A463146CD
:1025100024A808F015F8012124A807F0B3F9022334
:1025200024A88DF8D83007F04EFABDF898322B9ACF
:10253000BDF89C629342A89F28BF1346419A9642D9
:1025400003EB4308A7EB430728BF1646479B9E4271
:1025500009D824A807F0B8F924A807F0E5F80DF584
:102560001F7DBDE8F083012201A924A807F074FAB9
:102570006B6B03EB0800984201D83C44E6E75978BE
:102580009A78C90009EA022201F4FC610A4313F8AF
:10259000031B42EAD10224F8022BECE700F8FFFF0C
:1025A0000A4A02600022C0E90522C0E90722C0E908
:1025B0000922C0E90B22C0E90D12C0E90F2280F800
:1025C0004420C0E90322C0E9012270479C2103088E
:1025D00010B40C4611461A46036B3BB1036C806B7A
:1025E000E41A20445DF8044B2EF004BAC06AF8E700
:1025F000036B10B573B1036C826BC91A5318525C2C
:1026000098785C780004DB7840EA0420104340EAC4
:10261000036010BDC36A5858FBE7036B43B1036CFA
:10262000C91A836B5A18585C527840EA02207047E6
:10263000C36A585A7047000070B50446006B0D46D7
:102640001646D8B1E36B934208D209230D4A65219F
:102650000D4884F844300D4B2DF008FF0368DB680B
:102660009847206B3246A16B03681B69984710B9E5
:102670000D2384F84430A06B256470BDE06A0844E3
:10268000FBE700BF281F0308C71E0308151F030828
:102690002DE9F843436904462BB9234BAA21234A69
:1026A00023482DF0E3FE08228169FFF7C5FFA169E9
:1026B00043F2300646F2643704312046FFF798FFB4
:1026C000A3691844A36A00F108029A4206D30123C1
:1026D00000206361236AA361BDE8F8836369093060
:1026E0000822013320F0010120466361A161FFF758
:1026F000A3FFD4F8189020464946FFF78EFF09F152
:10270000020180462046FFF788FF09F104010546D3
:102710002046FFF76DFFB045D2D1BD42D0D1002891
:10272000CED00120D8E700BF6A1F0308B31F0308FB
:10273000C71E03082DE9F04F0446ADF51F7D8A46FC
:102740001646816908229846FFF776FFA76920465A
:10275000391DFFF74DFF07F10801024605462046E7
:10276000FFF76AFF636B074633B93C4B40F2AB118E
:102770003B4A3C482DF07AFE002203A8CDE9013205
:102780000CF0D0FF4FF4F4725021249024A806F0EE
:102790007EFF2A46394624A807F0D2FE012124A84C
:1027A00007F070F8022324A88DF8D83007F00BF951
:1027B000BAF90250479BAB4229D3BAF900904FEACD
:1027C0004808BAF804702B9B08FB05664F44BAF81A
:1027D0000250DFF894B03FB29F4228BF1F46BAF8BC
:1027E000063009EB490A1D44419B2DB29D4228BF8A
:1027F0001D46479BAB4210D324A807F065F824A8D8
:1028000006F092FF01200DF51F7DBDE8F08F01223B
:1028100001A924A807F020F9CCE7012201A924A8E6
:1028200007F01AF9626B49465244B94202F10302B9
:1028300001D34644DDE712F8020C12F8013CC00057
:102840000BEA032300F4FC60034312F8030C43EA91
:10285000D00326F811300131E7E700BFE61F030877
:102860003C200308C71E030800F8FFFF0129036886
:1028700038BF0121DB6A70B50D4604469847A8426F
:1028800004D223682046DB6A984705466B1EE6693A
:102890001022204606EB031606F10801FFF7CCFED6
:1028A00006F110012046FFF7A3FE236A043B034410
:1028B000C4E9055370BD0000002148222DE9F04114
:1028C0000446816180F84410FFF7B6FEA669042330
:1028D000624A31462046FFF77BFE40B10323604A3F
:1028E000F22184F844305F4B5F482DF0BFFD06F1C4
:1028F000080104235D4A2046A161FFF769FE30B15B
:102900000423574AFA2184F84430594BECE706F186
:102910000C010423574A2046A161FFF759FE0746E0
:1029200038B105234E4A40F2011184F84430524B2D
:10293000DAE706F110012046FFF75AFE054620B9F6
:102940004E4B40F20711464ACEE706F11408042325
:102950004B4A20464146FFF73BFE002849D006235C
:1029600084F844300423474A06F118012046FFF753
:102970002FFE00283FD0072384F844304544424FBF
:102980000C2220462946FFF757FE05F108060423CE
:102990003A4620463146FFF71BFE94F844300028A3
:1029A00048D0002B48D1A36AAB4249D805F10C03AB
:1029B00004352046A3612946FFF71AFE3044294614
:1029C00060622046FFF714FE06440422204631468A
:1029D000FFF732FE04232D4A31462046FFF7F8FD6B
:1029E000002838D10123E6616361A3692362BDE851
:1029F000F0810127B6E7002FC0D006F12001204664
:102A0000FFF7F6FD4FF47A7306F13001B0FBF3F0F7
:102A100060602046FFF7ECFD06F14001A060204613
:102A2000FFF7E6FD06F14401E0602046FFF7E0FD18
:102A30002061A3E7002BB9D00A2384F84430D6E7FD
:102A4000291D2046FFF7D4FD85190C222046294672
:102A5000FFF7F2FD99E70B23EFE700BF962003088D
:102A6000B42003089B200308C71E0308E1200308C5
:102A7000E6200308FE2003080321030819210308A8
:102A8000252103082A2103082F21030834210308E4
:102A9000C0E90A2100220263FFF70EBF10B5002330
:102AA00004460846E3620B6821639B689847A0626E
:102AB0002046BDE81040FFF7FFBEF0B4069FBDF80A
:102AC0001050BDF8146032B12BB10495CDE9056703
:102AD000F0BCFFF701BDF0BC704700002DE9F04FDE
:102AE0009946436985B004460F4690462BB9294B59
:102AF0007721294A29482DF0B9FC08228169FFF77E
:102B00009BFDA66920463146FFF787FDB11C834631
:102B10002046FFF782FD311D82462046FFF768FD03
:102B200006F10801A36A054642189A4226D243F2EA
:102B300030039B4517D146F264339A4513D190B1C7
:102B40000246A1612046FFF777FD0E9B01462A460B
:102B50002046CDF80080CDE901933B46FFF7ADFF5D
:102B6000636901336361A3692B4405B908330133F9
:102B7000626A23F001039342A36109D1012301207A
:102B80006361236AA36180F0010005B0BDE8F08FA6
:102B90000020F8E76A1F030839210308C71E03084D
:102BA000012070470C2070470C2303FB0100083004
:102BB00070470C2303FB0100083070470120704769
:102BC00042F25000704742F2500303FB010008300C
:102BD000704742F2500303FB0100083070470120A8
:102BE00070471020704700EB01100830704700EB71
:102BF000011008307047084600F01EBF034B10B5A7
:102C00000446036013F098FD204610BD44220308DB
:102C100010B50446FFF7F2FF142120462CF0DFFC2C
:102C2000204610BD034B10B50446036013F084FD2D
:102C3000204610BD1022030810B50446FFF7F2FF2E
:102C400042F2580120462CF0CAFC204610BD00007C
:102C5000034B10B50446036013F06EFD204610BD13
:102C6000DC21030810B50446FFF7F2FF18212046C7
:102C70002CF0B5FC204610BD094B10B5044603608E
:102C800000F502500430FFF7B9FF04F12C00FFF704
:102C9000C9FF04F11400FFF7DBFF204610BD00BFA1
:102CA0007822030808B50248FFF7E6FF08BD00BF19
:102CB000A414002010B50446FFF7DEFF42F2F8111D
:102CC00020462CF08CFC204610BD00002DE9F3417D
:102CD00000F034FD0024054600F034FD2346014693
:102CE0002246284600941CF061FD274B274A2046C7
:102CF000274D1A6001F004FA264B274A27489A60AC
:102D00001CF0BCFC2B68BFF35B8FDB0736D4284676
:102D10002CF067FC90B3224C224F234B04F114009B
:102D200007F1180604F12C0823606060C4F80880DD
:102D3000E760266113F002FD1C4B4046636113F00F
:102D4000FDFC1B4B3846E36213F0F8FC04F500531E
:102D5000184A03F19800C3F8842001F047FA22468C
:102D600007F11401304601F037FA304600F064FEF6
:102D700011482DF099FB28462CF03FFC0F4802B07B
:102D8000BDE8F041FFF70CB8387301205006002071
:102D9000A014002070060020540600200800002027
:102DA000A41400202835002078220308DC21030821
:102DB0001022030844220308A52C0008D405002093
:102DC00070470000014814F098B900BFD4050020F6
:102DD00070B5244E244B254C3046254D2360FFF71B
:102DE000A7FA284621F0F4FD22481AF0A3FD224B51
:102DF00000224FF4807121481A8683F858205A66C1
:102E000083F870205A67DC60C3E912121C49C3E9D9
:102E10001A121C4999671C490B604FF4F07101802C
:102E20001A4801804FF488711948C3E90422C3E9A4
:102E30000622C3E90822C3E90A22C3E90E22C3E934
:102E40001022C3E91422C3E91722C3E901650180F6
:102E5000104883F8342001800F490A700F4A1A6025
:102E600070BD00BFFC060020781903089C140020E8
:102E70007006002054060020D4050020C8720120EE
:102E80000100000100000101D4720120CE72012076
:102E9000CA720120D0720120CC720120041B0308E9
:102EA0000148FFF7FDB800BFFC0600200020704776
:102EB00081807047C18070470181704741817047B0
:102EC0007047704770477047704710B4C4880368F4
:102ED000121B84885B6D091B12B25DF8044B09B2AA
:102EE00018474FF6FF7383814FF0FF330362136877
:102EF000C36110607047002070478B888380012079
:102F00007047704780F82610704790F82600704789
:102F1000002210B5B1F90840B1F90A1002804280D0
:102F20008480C18010BD0022028042808280C280E5
:102F300070470177704780ED080A704780F82410C9
:102F4000704780F82510704701207047983070470F
:102F50008C3070478430704770470000034B9022DC
:102F600083F85A2383F85823704700BF00E100E03C
:102F7000094A0A49D3680A48C3F30A03013B9BB2D2
:102F80000B801169C1F30A01013901801364536B8D
:102F900043F0010353637047006801409E360020F0
:102FA0009C360020014BD3F8AC007047006801400C
:102FB000024B0122C3F8AC105A627047006801400E
:102FC000124A5369DB0370B51ED50023C2F8843062
:102FD000BFF34F8FD2F8803043F6E074C3F3C900DB
:102FE000C3F34E335B0103EA0406014646EA8175EA
:102FF0000139C2F87452F9D2203B13F1200FF2D1FB
:10300000BFF34F8FBFF36F8F70BD00BF00ED00E0C7
:103010007047704770473823002201FB0333C254C6
:1030200090F838300BB9036C83647047704780F8B0
:103030004C10704710B5044658212CF0D0FA2046A9
:1030400010BD10B504462C212CF0C9FA204610BD45
:1030500010B50446BC212CF0C2FA204610BD000079
:1030600038B5044614F035F823685D6E19F0EAFAB5
:1030700001462046A8472368084A2046D3F88850CE
:103080000023A2F57F31A847054B064A5A60064A3D
:103090001A649A644FF4FF225A6438BD00F807C0DE
:1030A00060370020B837002000F40BC013F0F8BFE1
:1030B00014F002B813F0BEBF14F02DB990F825201B
:1030C00012B103685B6918477047000008B531B159
:1030D000044B40F29711044A04482DF0C7F990F8C8
:1030E000390008BD84220308982203082524030818
:1030F00010B531B1064B40F29111064A06482DF049
:10310000B5F9406811460368BDE810401B6B1847CD
:1031100084220308672403082524030808B529B17D
:10312000034B7A21034A04482DF0A0F9006908BD39
:1031300084220308182603082524030808B529B1AA
:10314000054B8321054A06482DF090F941618160C5
:10315000C0E9063208BD00BF84220308D027030857
:103160002524030810B5044629B1274BA421274A7A
:1031700027482DF07BF9052A34D8DFE802F003292F
:103180002F34393E406803681B69984750B34FF0AD
:10319000FF31606D04F044F80023012294F83E10E2
:1031A00084F83B3084F83920A360636101B1226266
:1031B00084F83E306362E36A2BB90123206D84F802
:1031C0003A3004F01DF9606DBDE8104004F058B8C5
:1031D000002380F8393084F83E3003E00362002396
:1031E0008360436110BD0362002383604361F2E7A3
:1031F000002380F839300123EDE7003B18BF01239D
:1032000080F83D30EEE700BF842203088F290308D1
:103210002524030890F825201AB190F8242002B143
:103220001860704770B50446164629B1314BE72146
:10323000314A32482DF01AF990F8393033B1304B19
:103240001B6893F86B20436913444361E36A002BC6
:103250004DD0E169D4E905325343A2684A43934211
:1032600020D2236A002B42D04FF0FF31606D03F073
:10327000D7FF236A0BB10023E362E36AFBB90125A0
:10328000606D03F0FDFF94F839300BB9236A3BB150
:10329000E36A2BB90123206D84F83A3004F0B0F8CA
:1032A000284670BD94F84C000028DDD09B1AB3FB73
:1032B000F1F2994298BF02F1FF326262D4E7002234
:1032C00094F83C50A3623046E262E2682261A26850
:1032D0000132A260336333685B699847002DCED119
:1032E00094F83D30002BCBD184F83950C8E7012544
:1032F000C9E700BF84220308662B030825240308BE
:10330000D4720120034B4FF080629A604FF08072BC
:103310009A60704700E100E0084B4FF08062C3F80C
:103320008820BFF34F8FBFF36F8F4FF08072C3F8C9
:103330008820BFF34F8FBFF36F8F704700E100E02D
:1033400038B5034690F8380038BB01229860D86041
:103350009A634FF4807258619A874FF4F0729861C3
:10336000D861186258629862D8621863586383F80B
:103370003E00CA864FF4887281F834000A870863D9
:103380009A6C186102F5FF24D3E9101529448C4288
:103390000AD9084B5821084A03E0084B40F2F511BE
:1033A000074A08482DF062F81A6302F57F329C64E0
:1033B0005A6338BDC42E0308042F03080A2D0308DE
:1033C0003A2D030825240308002370B5124E054644
:1033D0008380124B0360336893F858200AB1D86C8D
:1033E00000B998680368DB6A98473368B0FA80F4DC
:1033F000D86C640930B10368DB6A9847002808BFBD
:1034000044F001042CB9064B2C21064A06482DF045
:103410002DF8284670BD00BFD4720120AC310308DE
:10342000AA300308083103084131030870B5244E5F
:103430003568BFF35B8F15F001053FD130462CF0A6
:10344000D0F800283AD01F4C1F4B04F134002561FE
:10345000E584A562A585C4E90035C4E902551AF0E2
:10346000C8FC04F1580016F06DFF184B2046A36508
:10347000174B40F8843BFFF7A7FF164B1648C4F8DC
:1034800084302433C4F89050C4F88C306423C4F8DA
:103490009C50C4F8A850C4E928350023C4F8AC30C7
:1034A000C4F8B030C4F8B430C4F8B8300B4BC4F82A
:1034B00098302CF0F9FF30462CF09FF8014870BD91
:1034C000A0360020A4360020F85C0308CC310308A5
:1034D00044320308AC5C0308592F00084C5C030815
:1034E00010B5144C236823B3134B144A1B6C11887A
:1034F0008B4213D1124B198802F08AFA226892F893
:103500006A30013382F86A30FEF774FD206814F0E7
:103510002DFB0020BDE81040FEF772BB02F078FAE8
:10352000206803681B6A98470020BDE81040FEF73A
:1035300097BB10BDD4720120006801409E36002068
:103540009C3600202DE9F74304464FF4707894F838
:103550003A304FF0FF31002B31D0606D03F060FE48
:10356000276BA36ABB4200D1676B266A656856B3B6
:103570002B68314628465B6A98470023236284F80B
:103580003B30606D03F07CFE2B684FF4F0723946DF
:10359000CDF8008028465E694FF48873B0474FF03D
:1035A000FF310646606D03F03BFE94F83B30E3B11B
:1035B000002384F83B30606D03F062FEC7E7206DA6
:1035C00003F0E2FEC3E7636A002BDAD02B682846DB
:1035D000D3E909939847616A01442846C847A3681C
:1035E000626A66621344A360CBE7E7625EB12B6850
:1035F00028469B6A984701380023E06084F83C60C5
:1036000084F83A30D7E70120F6E70000014808B512
:10361000FFF798FF603700200368042270B5044666
:103620005E6A00230D46B0474FF0FF31606D03F036
:10363000F7FD382303FB0542D16A09B10021D162AD
:1036400003FB0545012385F83B30002385F839301D
:10365000606DBDE8704003F013BE38B500EB810328
:1036600004460D46114658680368DB6898472946AA
:103670002046FFF7D1FF38BD70B50D461146044610
:1036800000EB85025068026896681A46B0472946E2
:103690002046FFF7C1FF70BD38B516490025164812
:1036A000FEF77EFF154C164B01202A462946236063
:1036B0004FF48073A564A38784F84C0084F83E50CF
:1036C000C4E91055C4E91455C4E90155C4E90355CA
:1036D000C4E90555C4E90755C4E90955C4E90B55C2
:1036E000C4E90D5503F0F8FD2065284603F056FDAA
:1036F000606538BD00380020B837002060370020F2
:1037000090320308704710B5044604212BF067FF80
:10371000204610BD012908B506D0022908D059B9A4
:1037200000F02CFD006808BD00F028FD4068FAE7B5
:1037300000F024FD8068F6E70020F4E700487047B9
:10374000DC3203080420704713B5002451B103682C
:1037500001AA01948DF803409C680DF10303A04772
:1037600002B010BD0846FBE7C0897047008A704769
:10377000C088704780887047807A00F07F0070476B
:10378000807AC00970470020704700009FED010A51
:10379000704700BF000000007047704700F5987345
:1037A0000868496803C370477047704741607047B5
:1037B00070470000064BC0F84801C0F84C310023A8
:1037C000C0F8503100F5A273C0F84031704700BF17
:1037D000753800080123037270477047704710B4B2
:1037E00041680346C2689B68541001EB6200D2072F
:1037F00048BF0A595DF8044B48BFD35818470346E1
:10380000406830B19A681AB9D86800F00100704772
:103810000120704710B504460C212BF0E0FE204635
:1038200010BD10B5044610212BF0D9FE204610BD66
:1038300010B504464FF4AE712BF0D1FE204610BDFA
:1038400010B518F0FFFE0368BDE81040DB6B1847A9
:1038500010B50446D0F8400158B10368DB689847BA
:1038600038B1D4F8400103689B6898470023C4F836
:10387000403110BD2DE9F14FD0E9556A0746B068D7
:1038800003681B6A984742F24F03984205D8444B9D
:10389000A321444A44482CF0E9FD706803681B6A80
:1038A00098470F2803D8414BA4213E4AF2E7F0681D
:1038B00003681B6A98470B2803D83D4BA521394A5A
:1038C000E8E7DFF8F49018F0BDFE043018F0F8FED9
:1038D000D9F8000010B10368DB689847D9F80000F8
:1038E00010B103681B689847DFF8D080D8F8000053
:1038F00010B103685B699847D7F83C0110B10368C1
:103900005B689847D8F8000010B103681B689847B7
:10391000D7F83C0110B103689B689847F068002114
:103920004FF0000B03685B6A9847224B0446C0F8CF
:1039300004B080F808B059460360B06803685B6A59
:103940009847054600F086FC7068594603685B6A34
:1039500098470646294600F05BFC331DC7F83C61DA
:103960002846C9F80040C8F80050CAF800302B6853
:10397000C6F808A0DB68EE639847336830461B68DA
:103980009847214628461AF045FF236820461B69C0
:103990009847236820465B6901B0BDE8F04F18479F
:1039A0002C330308BA3303088C340308D3340308D8
:1039B00076350308903603081C7301201873012024
:1039C000044B1B6893F858200AB1D86C00B998686A
:1039D000704700BFD472012070B5164604460D46EC
:1039E00018F040FF104B00211C60104B2360104B5F
:1039F000C4E951310F4B1868C4E953110368C4E995
:103A00004F119B68C4E955659847FFF7D9FF22F02D
:103A100032FEFFF7D5FF22F0A9FEFFF7D1FF22F01B
:103A2000B1FE204670BD00BF287301203C3603085C
:103A300024360308D4720120064BC0F84801C0F8B0
:103A40004C310023C0F8503100F5A273C0F840316A
:103A5000704700BF75380008406A7047806A704739
:103A600070478B88C069DB0A0A6850F8230010444D
:103A7000704710B50446BAB1107B68B1537BD27A57
:103A80001B0203F4E0631A43236A03EB82031A88E0
:103A90008A4202D193F9020010BD05D801380433DF
:103AA00080B20028F3D1F7E70020F5E710B504460F
:103AB0002C212BF094FD204610BD000030B58BB0BA
:103AC0000446BDF860500895BDF85C5007959DF818
:103AD000505006959DF84C5005959DF8485004951A
:103AE0009DF8445003959DF8405002959DF83C5038
:103AF0000195BDF8385000951AF038FA064B20466B
:103B00002360159BE361169B2362199B63621A9BDA
:103B1000A3620BB030BD00BFB436030870477047D6
:103B20007047704770477047017670478182C28244
:103B30007047704710B5044620212BF050FD2046F9
:103B400010BD70B50B880546044625F8043F28468D
:103B50001BF0B6FFA07128461BF03CFE0646284627
:103B60001BF06CFE0023E08104F10800A360A68135
:103B700018F0B4FB28461BF01FFF206170BD000049
:103B8000034B10B50446036017F0F2FC204610BD4D
:103B900038370308064B10B50446036017F0E8FCFD
:103BA00042F2500120462BF01AFD204610BD00BF06
:103BB00038370308036870B504461B6B15469847F1
:103BC0002368204629465B6BBDE87040184770B5F6
:103BD00004461D46BDF91060FFF7ECFF2368294637
:103BE00020469B6B9847236831462046DB6BBDE837
:103BF0007040184738B504460D46FFF7E5FB0B4B00
:103C000004F108002946A3602B88A3810023A37335
:103C100084F82030C4E90433C4E90633FFF791FF88
:103C2000034B204623602433A36038BD1C370308B0
:103C30006C5C03082DE9F04F044687B01AF03EFC97
:103C40000025A2469F4BE563FF224AF8403B04F162
:103C50006C089D4B4FF6FF7904F1980784F86620B5
:103C600004F50E7B05A94046A4F8929084F8949040
:103C700004F519762566A566ADF81490C4E91035EB
:103C80004FF48073A4F86430A4F890308F4BC4E9EB
:103C90001255E366C4E91455C4E91655C4E91C5528
:103CA000C4E91E55C4E92055C4E9225516F05BFD50
:103CB000384616F0E5FB05A95846ADF81490FFF715
:103CC00099FF304616F0DCFB04F2044305A9ADF879
:103CD000149018460393FFF78DFF04F586604FF4A8
:103CE000E15104F1040917F039FC4FF488732A46B6
:103CF0002946504600934FF4F073FFF768FF4FF0EA
:103D00007F4351464846A3664FF0B80A12F0F8FECA
:103D10002A4629464046FFF74DFF05A94046ADF823
:103D2000145016F020FD414648464FF0010812F0AD
:103D3000E7FE05A93846ADF8148012F073FE53462D
:103D400038462C222121CDF800A0FFF740FF5C224D
:103D50003846114616F06DFC38467A226FF076012F
:103D600016F0ECFC2B46642229463846009512F0EA
:103D700006FD2946384616F08BFC082235233846C6
:103D8000032116F041FC4146384616F0D9FB414666
:103D9000384616F0D8FB4146384616F0D7FB4FF0B0
:103DA000020305A95846ADF8143014F037FC384624
:103DB00016F0CFFBC0F828B038464FF06C0B16F069
:103DC000C8FB4FF41E624263384616F0C2FB4FF444
:103DD0001C620264384616F0BCFBB42115F05CFD91
:103DE0001322922338461146CDF800B016F080FB1E
:103DF0003946484612F084FE05A93046ADF81480D5
:103E000012F010FE534630462C224FF48371CDF849
:103E100000A0FFF7DCFE5C223046114616F009FCDC
:103E200030467A226FF0760116F088FC2B46642229
:103E300029463046009512F0A2FC2946304616F07D
:103E400027FC082235233046032116F0DDFB4146CE
:103E5000304616F075FB4146304616F074FB41467D
:103E6000304616F073FB4FF0020305A90398ADF836
:103E7000143014F0D3FB304616F06BFB039B8362C7
:103E8000304616F066FB4FF41E634363304616F06F
:103E900060FB4FF41C630364304616F05AFBB421F8
:103EA00015F0FAFC1322922330461146CDF800B0EB
:103EB00016F01EFB4846314612F022FE204607B09F
:103EC000BDE8F08F38370308EC5E03083C60030858
:103ED0007047000030B5164D8FB02C68BFF35B8F74
:103EE00014F0010420D128462BF07BFBE0B13F23E6
:103EF000012210490993104B10480893104B0A9463
:103F00000594CDE906430423CDE903320A23CDE924
:103F10000B440093CDE90144FFF7D0FD09482CF094
:103F2000C3FA28462BF069FB04480FB030BD00BF30
:103F3000803F0020A0160790F06A0308843F00200D
:103F4000FC6A0308D13E00087047000030B5164DEA
:103F50008FB02C68BFF35B8F14F0010420D128468A
:103F60002BF03FFBE0B13F23012210490993104B96
:103F700010480893104B0A940594CDE90643042396
:103F8000CDE903321423CDE90B440093CDE901447C
:103F9000FFF794FD09482CF087FA28462BF02DFBFB
:103FA00004480FB030BD00BFB03F0020B0160790EE
:103FB000F46A0308B43F0020006B0308493F00087F
:103FC0007047000030B5164D8FB02C68BFF35B8F83
:103FD00014F0010420D128462BF003FBE0B13F236D
:103FE000012210490993104B10480893104B0A9472
:103FF0000594CDE906430423CDE903322823CDE916
:104000000B440093CDE90144FFF758FD09482CF01B
:104010004BFA28462BF0F1FA04480FB030BD00BF30
:10402000E03F0020C0160790F86A0308E43F002034
:10403000046B0308C13F0008002070470020704750
:104040000EB403B503AB002153F8042B019319F010
:1040500091FA02B05DF804EB03B070470CB407B5F9
:1040600004AB53F8042B019319F084FA03B05DF804
:1040700004EB02B070470000436C10B5044673B304
:10408000038F2BB9184BC521184A19482CF0EEF9AB
:10409000C38E00EB43035B8C0BB31BF0B3F8238F91
:1040A000012B03D8134BCB21134AEEE7E28E40F6E7
:1040B0003F10531C9BB2092B194688BFA3F10A017C
:1040C00004EB4101498C814209D10A2B04EB4202E5
:1040D00028BF0023508C04EB4303588451842046AE
:1040E000BDE810401AF090BF643703086D3703082D
:1040F0001838030862380308703803081AF04DBFF7
:1041000038B518BB124B13481C681349B4B1226868
:1041100022440260626822440A60A26814440F4B81
:1041200000221A8000F02AF8054600F025F80C4B12
:104130001C600C4B1D600C4B188007E00B4B0360A0
:104140000B4B0B600B4B1C68002CE8D138BD00BF3B
:104150001C40002014400020104000201840002087
:104160002C7301203473012030730120D416079082
:10417000D0160790D8160790002070470048704767
:104180002040002010B5054CFFF7E0FE2060FFF74F
:1041900019FF6060FFF79EFEA06010BD2040002068
:1041A00010B5002404600C6014601C6010BD7047E2
:1041B00010B504464FF4AE712BF011FA204610BD35
:1041C00010B50446D0F8580100F013F82046BDE8B9
:1041D000104018F0D3BA000010B50446FFF7FCFBFE
:1041E000014B2046236010BD4C39030800220260B9
:1041F00070477047704704387047704710B50446E1
:1042000010212BF0ECF9204610BDA0F10400F5E7D9
:104210000022C1608260024A026018324260704728
:10422000A039030870470000034B10B50446036033
:10423000FFF7A6FC204610BDC839030810B5044698
:10424000FFF7F2FF42F2500120462BF0C8F920465A
:1042500010BD000010B50446FFF7ECFC014B2046F2
:10426000236010BDC8390308FFF763BC00B54FF4E5
:10427000807295B04FF0807103460C9205220F9129
:1042800001210692002201910B92139200920B4899
:10429000CDE90312CDE90D22CDE91122102206A9A4
:1042A00002924FF4800205926A4601F091FD0038B7
:1042B00018BF012015B05DF804FB00BF2C400020A2
:1042C00000B54FF4807395B041F2883217480C93D3
:1042D000062306A906930023CDE90D330F930B9314
:1042E0001393CDE9113301F02EFDE0B90223012231
:1042F0004FF4800104900D48CDE900331023CDE93F
:10430000023205236A46CDE905134FF0807306A9F2
:104310000F9341F2883301F05BFD003818BF012094
:1043200015B05DF804FB0120FAE700BF2C40002027
:1043300000B54FF4807391B04FF040720E4808936F
:10434000EB2302A902934FF4406309934FF4005307
:1043500005930023CDE90A320A220F9307926A4699
:10436000CDE90D33CDE9003301F083FD003818BFEE
:10437000012011B05DF804FB2C400020454B0121C9
:104380009A6B42F00202F0B59A638DB09A6B0924E1
:10439000414D042702F00202002628460092009AAE
:1043A0009A6942F002029A619A6922F002029A61C5
:1043B0001A6B42F002021A631A6B02F002020192B7
:1043C000019A1A6B42F002021A631A6B02F002029F
:1043D0000292029A1A6B42F008021A631A6B02F0F8
:1043E00008020392039A1A6B42F008021A631A6BCE
:1043F00002F008020492049A1A6B42F010021A6347
:104400001A6B02F010020592059A1A6B42F008022C
:104410001A6340221B6B03F008030693069B0223DA
:10442000CDE907230323CDE909130A2307A90B9339
:1044300000F038FC07A92846079709960B9400F06E
:1044400031FC4FF4006307A90B941D4407932846E1
:1044500000F028FC4FF4805307A9284607930B94DB
:1044600000F020FC07A90D4807970B9400F01AFCF8
:104470004FF4005307A928460B94079300F012FC51
:1044800032460F215C2000F0D3F95C2000F002FAE4
:104490000DB0F0BD003802400004024000100240A0
:1044A000F0B5494C91B0494B2046236001F038FCEF
:1044B000054610B1012011B0F0BD01462046FFF7BE
:1044C0005DFF012604234FF08077C4E901631023C8
:1044D000E36097FAA7F3B3FA83F32046013B236125
:1044E0004FF4A063C4E90755C4E9053501F0C6FBE4
:1044F0000028DFD14FF4807566230B9041F288329B
:10450000079002A90F9008950293CDE90900CDE923
:104510000D00204601F017FC08B10420CBE79923D9
:1045200041F2883202A92046029301F00CFC0028D7
:10453000F3D141F28830FFF799FE0028EDD18523B1
:10454000079041F2883202A9089502930B97CDE9B2
:104550000900CDE90C60CDE90E00204601F0F3FB27
:104560000028DAD141F288320DF10701204601F02E
:104570006AFD0028D1D1FFF7A3FE0028CDD1812309
:10458000F022029392FAA2F20A219DF80730B2FAC1
:1045900082F2204603F00F0301FA02F202A913434C
:1045A00041F288328DF8073001F0CDFB0028B4D1FC
:1045B00041F288320DF10701204601F0E5FC0028A8
:1045C0003FF479AFA9E700BF2C400020001000A005
:1045D0000F490020D1F8883043F47003C1F88830C7
:1045E0000C4B1A6842F001021A6098601A6822F0B7
:1045F000847222F480321A60074A5A601A6822F4E0
:1046000080221A60D8604FF000638B60704700BF53
:1046100000ED00E000380240103000247047002018
:1046200070470000002337B58DF807300C4B1A781F
:104630000AB901221A700324C5B2013CA8212846F8
:10464000FDF7C2FA14F0FF048DF807009DF807305B
:10465000DBB201D0512BF0D19DF8070003B030BD83
:104660007A40002013B500240221C0B28DF8074023
:10467000FDF7AAFA8DF807009DF8073003F00F0345
:104680008DF807309DF80730052B01D98DF80740CC
:104690009DF80720034B9DF807005A7000229A707E
:1046A00002B010BD7A4000202DE9F74F2F4C15467F
:1046B0004FF000080F46A37862788DF807809A4281
:1046C0004DD9092B4ED803EB43035B00DBB2191D18
:1046D00003F1030B03F1060A0533C9B25FFA8BFB42
:1046E0005FFA8AFA5FFA83F8C6B2DFF88490304640
:1046F000FDF76AFA8DF807009DF8073059463046F5
:10470000A9F80030FDF760FA8DF8070051469DF8D2
:1047100007303046B9F800201B0203F470631343DE
:104720003B80A9F80030FDF74FFA8DF807004146AD
:104730009DF807303046A9F80030FDF745FA8DF8AE
:1047400007009DF80730B9F800201B0203F47063DE
:104750001343A9F800302B80A3780133A37003B072
:10476000BDE8F08FC246C3464146BDE77A4000200F
:10477000784000200122A421C0B2FDF70BBA00222C
:10478000A421C0B2FDF706BAFFF7F9BF70470000D9
:10479000024B1A780AB901221A7070477A40002039
:1047A000074A032008B5136843F48073136000F0D0
:1047B0002DF80020FDF788F8FCF72AFE002008BD40
:1047C000003C0240034A044B11681B780B44136001
:1047D000704700BF8040002038000020014B18685F
:1047E000704700BF8040002038B50446FFF7F6FF51
:1047F0000546631C1EBF044B1B78E418FFF7EEFF51
:10480000431BA342FAD338BD3800002007490302F6
:10481000CA6803F4E06322F4E0621204120C13434A
:1048200043F0BF6343F40033CB60704700ED00E01A
:10483000164B30B5DC68C4F30224C4F10703251D10
:10484000042B28BF0423062D4FF0FF358CBF033CFB
:10485000002405FA03F3002805FA04F521EA03030E
:1048600022EA050203FA04F343EA02034FEA0313C0
:10487000DBB206DB00F1604000F5614080F80033F8
:1048800030BD00F00F00024A1354F9E700ED00E0DC
:1048900014ED00E0002807DB4109012300F01F00B0
:1048A000024A834042F82130704700BF00E100E037
:1048B00000280CDB4309012200F01F0004492033CB
:1048C000824041F82320BFF34F8FBFF36F8F7047B3
:1048D00000E100E0BFF35F8F044B5A6A22F480329C
:1048E0005A620022C3F89420704700BF00ED00E038
:1048F000064B40F00100C3F894005A6A42F480323B
:104900005A62BFF34F8FBFF36F8F704700ED00E027
:104910004378144AC2F89830D2F8A03023F001034B
:10492000C2F8A0304368C2F89C30C37A017B1B06F2
:1049300043EA017301780B43817A43EAC143417B27
:1049400043EA8143817B43EA4143C17B43EA01431C
:10495000417A43EA0123017A43EA4103C2F8A030D5
:10496000704700BF00ED00E010B5044608B9012013
:1049700010BD437F03F0FF0213B90277FCF766FD19
:10498000022363772379E3B92368134A5A619A684B
:1049900022F018029A6062792368D2B94FF0FF3290
:1049A0001A6100209A68616922F060020A43A169D5
:1049B0009A609A6822F080020A439A600123637722
:1049C000D6E7D4E90212204600F008F80028E2D029
:1049D000CDE72269E4E700BFB71DC104CB0710B5DE
:1049E0000DD51F23013B1DD321FA03F4E407F9D5AC
:1049F000102A13D0102A04D83AB1082A10D0012066
:104A00000BE0182AFBD1062BF9D8006841618368B6
:104A100023F0180313438360002010BD072BF3E736
:104A20000F2BF1E7102AE5D1E9E770B50446866D52
:104A3000FFF7D4FE054694F83530022B06D08023CC
:104A400001206365002384F8343070BD23681A6840
:104A500022F016021A605A6922F080025A61226C12
:104A60000AB9A26C1AB11A6822F008021A601A6810
:104A700022F001021A602368186810F0010007D1C3
:104A8000E26D3F239340B360012384F83530D9E7CA
:104A9000FFF7A4FE401B0528EDD920230320636502
:104AA00084F83500CEE710B5044630B390F83930BD
:104AB00003F0FF021BB980F83820FCF7DDFC226808
:104AC00002236168002084F83930136823F44033EE
:104AD0000B43A1681360536B23F007030B43E1689A
:104AE0005363136C23F47F5323F03F030B4313648E
:104AF0000123E06384F8393010BD0120FCE77047E2
:104B00007047036870B55E6804461D68F20714D5E7
:104B1000E90512D51A6822F480721A60C26B42F05D
:104B20000102C26301229A60042380F83930002315
:104B300080F83830436903B19847B20616D5AB0404
:104B400014D523681A6822F400521A6020229A6051
:104B5000E36B43F00203E363042384F8393000235A
:104B600084F8383063690BB120469847300716D572
:104B7000290514D523681A6822F400621A600822F5
:104B80009A60E36B43F00403E363042384F8393051
:104B9000002384F8383063690BB1204698477207C8
:104BA0000BD56B0509D5236820461A6822F480626C
:104BB0001A6004229A60FFF7A2FFB00714D5A90576
:104BC00012D523681A6822F400721A6002229A60D1
:104BD000E36BE363012384F83930002384F8383031
:104BE00023690BB120469847F20613D5EB0411D583
:104BF000236820461A6822F480521A6010229A60B4
:104C0000E36BE363012384F83930002384F8383000
:104C1000FFF776FF70BD0000F0B590F8382003462E
:104C20000220012A2BD0012283F839000E011C4FEB
:104C300083F8382003EB0112D2E90740556A44EAB1
:104C40000040093C012C96BF05F07F4240EA056018
:104C500010431A68A1B9516A012C01EA070141EA1F
:104C6000000151629969916103D8596A21F07F412D
:104C700091620122002083F8392083F83800F0BDCA
:104C8000D169012C01EA070141EA0001D16103EB7E
:104C9000060189691161ECD825F07F451562E8E7C6
:104CA000F0FFFC002DE9F74F0023DFF8BC916C4AC0
:104CB00001240D689C4004EA0506AC4340F0B7802F
:104CC0004D6803274FEA430E05F0030407FA0EFC74
:104CD000671E6FEA0C0C012F34D8876807EA0C08AE
:104CE000CF6807FA0EF747EA08078760476827EAA0
:104CF0000608C5F300179F4047EA08074760C768E2
:104D0000022C07EA0C088F6807FA0EF747EA080733
:104D1000C76019D14FEAD30803F0070A4FF00F0B11
:104D200000EB88084FEA8A0AD8F820700BFA0AFBD1
:104D300027EA0B0B0F6907FA0AF747EA0B07C8F8CF
:104D4000207001E0032CDAD1076804FA0EF415F4A0
:104D5000403F07EA0C0744EA0704046067D0D9F82B
:104D6000444023F0030703F0030C4FF00F0E44F40C
:104D7000804407F180474FEA8C0CC9F8444007F59E
:104D80009C37D9F844400EFA0CFE04F48044019498
:104D9000019CBC6824EA0E0E324CA0424ED004F5B1
:104DA0008064A0424CD004F58064A0424AD004F54F
:104DB0008064A04248D004F58064A04246D004F547
:104DC0008064A04244D004F58064A04242D004F53F
:104DD0008064A04240D004F58064A0423ED004F537
:104DE0008064A04214BF0A24092404FA0CF415F4C8
:104DF000801F44EA0E04BC606FEA060794680CBF8B
:104E00003C40344315F4001F9460D4680CBF3C4010
:104E1000344315F4003FD46054680CBF3C40344325
:104E2000ED035460146854BF3C40344314600133B4
:104E3000102B7FF43DAF03B0BDE8F08F0024D4E722
:104E40000124D2E70224D0E70324CEE70424CCE7F0
:104E50000524CAE70624C8E70724C6E70824C4E7F0
:104E6000003C014000000240003802402DE9F04FB4
:104E700000224FF0010A4FF00F084FF0030B464C91
:104E80000AFA02FC3CEA01030CEA01066CD122F0AA
:104E9000030502F0030705F18045BF0005F59C35C9
:104EA00008FA07F9AB6809EA030E3C4B984260D058
:104EB00003F5806398425ED003F5806398425CD02E
:104EC00003F5806398425AD003F58063984258D026
:104ED00003F58063984256D003F58063984254D01E
:104EE00003F58063984252D003F58063984250D016
:104EF00003F5806398420CBF09230A23BB40734526
:104F000013D1236823EA06032360636823EA0603B8
:104F10006360E36823EA0603E360A36823EA060309
:104F2000A360AB6823EA0903AB6053000568D608A9
:104F30000BFA03F300EB860625EA0305056002F091
:104F40000705376AAD0008FA05F527EA0507376255
:104F5000C56825EA0305C560456825EA0C05456076
:104F6000856825EA030383600132102A88D1BDE8F1
:104F7000F08F0023C2E70123C0E70223BEE703232B
:104F8000BCE70423BAE70523B8E70623B6E70723FF
:104F9000B4E70823B2E700BF003C01400000024034
:104FA0000369194214BF0120002070470AB18161D2
:104FB00070470904FBE7436901EA030221EA0301A0
:104FC00041EA02418161704703689A69910701D5FE
:104FD00000229A629A69D20703D49A6942F00102C8
:104FE0009A61704730B5039DC1F3090104682B43F2
:104FF000606843EA0243054A0B4342EA555223F0F4
:10500000004320EA02000343636030BDFF63FF03F7
:1050100003682DE9F0419C6905460F46164614F0D9
:1050200010046FD000241022A046DA612B689A6920
:10503000900661D4B8F1000F35D044F0040401208B
:105040002E68B369D90505D54FF4807244F0010488
:105050000120F2615A0505D54FF4806244F008043E
:105060000120F2619B054FD54FF4007344F0020418
:10507000F3612846FFF7A8FF7368012023F0FF7350
:1050800023F48B3323F4FF7323F0010373606B6C01
:1050900023436B64202385F84130002385F8423098
:1050A00085F8403032E07A1CC1D0FFF797FB801BB7
:1050B000B84201D8002FB9D12B68596895F8422021
:1050C0009869D2B200040AD5490408D4202A06D02F
:1050D0005A6842F480425A60FFF780FB06462B680C
:1050E0009B699B06A2D4FFF779FB801B1928F6D990
:1050F00020244FF0010899E7B8F1000F9DD120223C
:10510000DA619AE720469BE70028B2D1BDE8F0813A
:1051100070B504460D46164623689B699B0701D56A
:1051200000201FE0324629462046FFF771FFC0B934
:105130006A1CF1D0FFF752FB801BA84201D8002D5A
:10514000EAD123689B6913F00203E5D1626C84F80D
:10515000403042F020026264202284F8412084F82A
:105160004230012070BD2DE9F041DDF81880044681
:105170000F4616461D4623689B6937EA03030CBF9A
:1051800001230023B34201D0002025E042462946F6
:105190002046FFF73DFFF0B96B1CECD0FFF71EFB7C
:1051A000A0EB0800A84201D8002DE4D123689B6938
:1051B00037EA03030CBF01230023B342DBD1636C46
:1051C00043F020036364202384F84130002384F8F3
:1051D000423084F840300120BDE8F08170B50446CB
:1051E0000D46164623689B699B0601D500201DE0ED
:1051F000324629462046FFF70BFFB0B9FFF7EEFA1B
:10520000801BA84201D8002DECD123689B6913F0C4
:105210002003E7D1626C84F8403042F020026264DF
:10522000202284F8412084F84230012070BD10B55E
:10523000044600284ED090F8413003F0FF021BB91D
:1052400080F84020FCF738F9242384F841302368A3
:105250001A6822F001021A60626822F070621A6114
:105260009A6822F400429A60D4E90221012906D109
:1052700042F400429A605A6822F4006207E042F465
:10528000044202299A60F6D15A6842F400625A60D8
:1052900000205A6842F0007242F400425A60DA6814
:1052A00022F40042DA60D4E904210A43A16942EA07
:1052B0000122DA60D4E907210A431A601A6842F031
:1052C00001021A602023606484F84130206384F86E
:1052D000420010BD0120FCE710B5044698B10268F9
:1052E000242380F84130136823F001031360FCF796
:1052F00027F90020606484F8400084F841002063AE
:1053000084F8420010BD0120FCE700002DE9F74FB2
:10531000994690F8413004460F46202B1646BDF8BA
:1053200034A0DDF8388040F0C6800C9B13B1BAF190
:10533000000F06D14FF400736364012003B0BDE891
:10534000F08F90F84030012B00F0B5804FF0010B4A
:1053500080F840B0FFF742FA1923054600905A46FC
:105360004FF400412046FFF7FEFE0028E5D121233F
:1053700060635FFA89F2394684F84130402384F84B
:1053800042300C9B6064204663624C4BA4F82AA018
:1053900000934FF08073FFF725FE2A4641462046D2
:1053A000FFF7B6FE18BBB9F1010F236815D1F6B2AD
:1053B0000022802120469E6243460095FFF7D3FEDF
:1053C000A8B9638D9BB2FF2B15D8628D4FF0007387
:1053D00092B22285D2B2009012E0320A41462046B3
:1053E0009A622A46FFF794FE08B92368DFE7002394
:1053F00084F84030A1E7FF224FF0807322850090AF
:1054000039462046FFF7EEFD2A4641462046FFF783
:105410007FFE002891D1636A226813F8011B916214
:105420006362638D228D013B013A9BB292B2638528
:10543000638D22859BB2B3B1AAB943468021204631
:105440000095FFF790FE00287FF477AF638D9BB245
:10545000FF2B28D9FF224FF0807322850090394618
:105460002046FFF7BFFD638D9BB2002BCCD12A46AF
:1054700041462046FFF7B2FE00287FF45EAF236866
:105480002021D9615A6822F0FF7222F48B3222F473
:10549000FF7222F001025A6084F8411084F8400043
:1054A00084F842004AE7628D4FF0007392B2228581
:1054B000D2B20090D3E7022040E700BF0020008076
:1054C0002DE9F74F994690F8413004460F46202BBE
:1054D0001646BDF834A0DDF8388040F0C9800C9B3A
:1054E00013B1BAF1000F06D14FF4007363640120C9
:1054F00003B0BDE8F08F90F84030012B00F0B88089
:105500004FF0010B80F840B0FFF768F919230090C5
:1055100005465A464FF400412046FFF724FE034655
:105520000028E4D122226063394684F841204022D9
:1055300084F842200C9A6064204662624D4AA4F8C6
:105540002AA000925FFA89F2FFF74CFD2A464146F5
:105550002046FFF7DDFD20BBB9F1010F236816D10E
:10556000F6B20022402120469E6243460095FFF796
:10557000FAFDB0B9638D9BB2FF2B3F4B15D8628DFE
:1055800092B22285D2B200934FF0007312E0320A39
:10559000414620469A622A46FFF7BAFD08B92368B9
:1055A000DEE7002384F84030A1E701222285009342
:1055B0004FF0807339462046FFF714FD4346002222
:1055C000042120460095FFF7CEFD00288FD12368E7
:1055D0005A6A636A1A70636A228D0133013A636200
:1055E000638D92B2013B22859BB26385638D9BB232
:1055F000B3B1AAB94346802120460095FFF7B3FD19
:1056000000287FF474AF638D9BB2FF2B28D9012251
:105610004FF080732285009039462046FFF7E2FC68
:10562000638D9BB2002BC9D12A4641462046FFF725
:10563000D5FD00287FF45BAF23682021D9615A682B
:1056400022F0FF7222F48B3222F4FF7222F0010268
:105650005A6084F8411084F8400084F8420047E71B
:10566000628D4FF0007392B22285D2B20090D3E7E0
:1056700002203DE7002000800024008010B590F853
:1056800041200346202AD4B21CD190F84020012AA0
:1056900018D0242280F841200268106820F0010010
:1056A0001060106820F480501060106801430020E2
:1056B0001160116841F00101116083F8414083F8E5
:1056C000400010BD0220FCE710B590F841200346D1
:1056D000202AD4B21BD190F84020012A17D02422CE
:1056E00080F841200268106820F001001060106806
:1056F00020F4706040EA012100201160116841F03F
:105700000101116083F8414083F8400010BD022080
:10571000FCE7D2010068D1F800C0843283182DE97B
:10572000F043C6680CF101075D684FF0000E4C684D
:10573000C6F30B4605F47045D1F8189026445D6019
:10574000C568C5F30B453D4445EA06455D60C6683E
:10575000CD68C6F30A062E449D6805F470459D6029
:105760008D68C7680135C7F30A073D4445EA064519
:105770000E699D601D6925F007051D611E619D690B
:1057800091F8327091F83180C3F818E091F83050F8
:1057900045EA096545EA082545EA07459D615D69D1
:1057A00025F0FF055D614D695D61DD6925F4E0650A
:1057B00025F00705DD61D1E907573D43DD619D6AAD
:1057C0004D6AC3F828E09D621EB3012E23D0B51E9A
:1057D000022D22D9072E14BF01250225DE6AA4EB73
:1057E0000C0406F0E0266C43DE6203348E6AC96A5C
:1057F0006E4344EA0644DC621C6B24F4FF6424F02C
:1058000007041C631963835843F001038350BDE808
:10581000F0830425E2E70325E0E70225DEE7000048
:1058200038B50446002863D090F8A13003F0FF0299
:105830001BB980F8A020FBF79FFE022384F8A1305B
:1058400023689A6922F070429A619969D4E901202B
:105850000243E06802432069024360690A43254924
:105860009A619A680A409A609A6842EA0042A0697E
:105870000243E0699A60DA680A40DA60DA6842EA6C
:105880000042206A0243606ADA601A690A401A61BB
:105890001A6942EA0042A06A02431A615A690A4040
:1058A000E16A5A615A6942EA0142216B0A435A612C
:1058B000DA6A94F8350002F07F4294F83610DA6222
:1058C000DD6A94F834202A4342EA0022002042EAAA
:1058D0000142DA625A6B42F006025A639A6942F058
:1058E00001029A610123C4F8A40084F8A13038BDF4
:1058F0000120FCE700F800F070477047036870B5BE
:105900009E6B04465D6B720714D5690712D55A6BFE
:1059100022F004025A630422DA63D0F8A43043F080
:105920000103C0F8A430002380F8A12080F8A03043
:10593000FFF7E2FFB20716D5AB0714D52368204660
:105940005A6B22F002025A630222DA63D4F8A430BE
:105950001343C4F8A430042384F8A130002384F84E
:10596000A030FFF7C9FFF00710D5E9070ED523686F
:1059700020465A6B22F001025A630122DA630023A7
:1059800084F8A12084F8A030FDF7AAFD320711D5D4
:105990002B070FD5236820465A6B22F008025A6362
:1059A0000822DA63012384F8A130002384F8A030B0
:1059B000FFF7A3FF70BD2DE9F04190F8A030064637
:1059C0000F469446012B4FF002001FD034244FF0B5
:1059D00001080D4686F8A10004FB026486F8A08049
:1059E00038340FCD0FC40FCD0FC40FCD0FC42B68AB
:1059F0003046624639462360FFF78BFE336800204D
:105A0000C3F8248086F8A18086F8A000BDE8F08164
:105A100090F8A02003460220012A12D01A6883F8C9
:105A2000A100506B20F00100506306480164002083
:105A3000516B41F001015163012283F8A00083F80A
:105A4000A120704700680140194B37B51A6C194CFA
:105A500042F080521A641B6C03F080530193019B47
:105A6000236843F480332360FEF7B8FE054663687D
:105A7000DA030CD523680F4D43F400332360FEF79F
:105A8000ADFE04466B689B030AD5002006E0FEF7D6
:105A9000A5FE401BB0F57A7FE9D9032003B030BDE5
:105AA000FEF79CFE001BB0F57A7FEBD9F5E700BF4F
:105AB00000380240007000402DE9F0474E6A36B1D0
:105AC000B2F1406F03D08B6A0468013B2361D1F8C7
:105AD00018A0D1E9077EBAF1000F4CD04C690568D7
